:020000000E28C8
:10000800FE00030EF7000408F8000A08F9007F084C
:10001800FA0087290F2883132030840034306422A3
:100028008301162883160313850112308600831274
:1000380003138501860107309F008316031381117E
:10004800011081100111803083120313B400253090
:10005800B500132283120313BA0106140330831266
:100068000313B9008A30B8005530B700B70B3A28E7
:10007800B80B3A28B90B3A2800008312031306106C
:10008800033083120313B9008A30B8005530B70023
:10009800B70B4C28B80B4C28B90B4C28000083121E
:1000A80003138616033083120313B9008A30B8008D
:1000B8005530B700B70B5E28B80B5E28B90B5E2821
:1000C8000000831203138612033083120313B9004E
:1000D8008A30B8005530B700B70B7028B80B7028B5
:1000E800B90B70280000013083120313BA070530DA
:1000F8003A02031C8028812831280B30831203130D
:10010800B9002630B8005D30B700B70B8928B80BA6
:100118008928B90B89280000413083120313B500E0
:1001280030220B3083120313B9002630B8005D303B
:10013800B700B70B9D28B80B9D28B90B9D28000068
:100148008312031306100B3083120313B9002630F1
:10015800B8005D30B700B70BAF28B80BAF28B90BA4
:10016800AF280000013083120313B50030220B3092
:1001780083120313B9002630B8005D30B700B70BFF
:10018800C328B80BC328B90BC32800008312031374
:1001980006100B3083120313B9002630B8005D3007
:1001A800B700B70BD528B80BD528B90BD528000050
:1001B800223083120313B500302222305622133026
:1001C80083120313B5003022223056222C305622D7
:1001D80022305622303083120313B50030222230E9
:1001E8005622103083120313B50030220B308312CD
:1001F8000313B9002630B8005D30B700B70B0229E9
:10020800B80B0229B90B0229000083120313061048
:100218000B3083120313B9002630B8005D30B700E5
:10022800B70B1429B80B1429B90B14290000831231
:1002380003130614823083120313B800DD30B700AD
:10024800B70B2429B80B24290000831203130610C6
:10025800823083120313B800DD30B700B70B3229A0
:10026800B80B322900001B290E2801308A00040827
:10027800840A82070034413454342B3443345734CD
:100288004D344F34443445345F3444344534463473
:100298003D3431340D340A3400344434493447345D
:1002A8004934463449344234523441342D34363496
:1002B800503452344E340034413454342B344334A3
:1002C80057344A34413450345F3444344534463426
:1002D8003D3400346B347334483437343434343474
:1002E8003434323465347934003445345234523439
:1002F8004F3452340034413454340D340A34003409
:100308004F344B340034831203138C1E8C298D29EF
:10031800B5292030F0001430F1000030F200C0217F
:100328002030F0004630F100EB2170087104031D05
:100338009E299F29A32983120313061486122030AD
:10034800F0003B30F100EB2170087104031DAD296A
:10035800AE29B229831203130610861683120313DB
:100368008C127A08FF0079088A0078088400770ED2
:100378008300FE0E7E0E0900F501F6014722F40007
:1003880075087007F30073088400740883138000ED
:100398000130F5070318F60A0030F60772087602EE
:1003A800031DD82971087502031CDB29DC29DD2906
:1003B800E3290A307406031DE229E329C2297508D6
:1003C8007007F3007308FE3E840080010800F029DE
:1003D8000130F0070130F107710884003921F2007B
:1003E80070088400831300087206031DFC29FD2988
:1003F800042A700884000008031D032A042AEC2933
:10040800710884003921F200700884000008F300A4
:1004180072087302F000F101031CF1030800803038
:10042800831203133406253003193506031D1D2ACC
:100438001E2A2F2A8B170B17831603138C16861464
:1004480006119816181583120313981718161930E1
:10045800831603139900080083120313B6013D2A7B
:1004680036083507840039215622013083120313D8
:10047800B6073608350784003921003A031D452A96
:10048800462A342A0800831203138C1E4C2A4D2A4C
:10049800472A981C502A512A532A181218168C12C7
:1004A8001A08080083120313B40083160313981C58
:1004B8005E2A5F2A592A8312031334089900080018
:1004C80064008001840A0406031900340406652ABE
:08400000FF3FFF3FFF3FFF3FC0
:02400E00613F10
:00000001FF
